{
  "_format": "hh-sol-artifact-1",
  "contractName": "BountyRegistry",
  "sourceName": "contracts/BountyRegistry.sol",
  "abi": [
    {
      "inputs": [],
      "stateMutability": "nonpayable",
      "type": "constructor"
    },
    {
      "inputs": [],
      "name": "BountyNotFound",
      "type": "error"
    },
    {
      "inputs": [],
      "name": "InsufficientReward",
      "type": "error"
    },
    {
      "inputs": [],
      "name": "InvalidDeadline",
      "type": "error"
    },
    {
      "inputs": [],
      "name": "InvalidStatus",
      "type": "error"
    },
    {
      "inputs": [],
      "name": "MaxSubmissionsReached",
      "type": "error"
    },
    {
      "inputs": [
        {
          "internalType": "address",
          "name": "owner",
          "type": "address"
        }
      ],
      "name": "OwnableInvalidOwner",
      "type": "error"
    },
    {
      "inputs": [
        {
          "internalType": "address",
          "name": "account",
          "type": "address"
        }
      ],
      "name": "OwnableUnauthorizedAccount",
      "type": "error"
    },
    {
      "inputs": [],
      "name": "ReentrancyGuardReentrantCall",
      "type": "error"
    },
    {
      "inputs": [],
      "name": "Unauthorized",
      "type": "error"
    },
    {
      "anonymous": false,
      "inputs": [
        {
          "indexed": true,
          "internalType": "uint256",
          "name": "id",
          "type": "uint256"
        },
        {
          "indexed": true,
          "internalType": "address",
          "name": "creator",
          "type": "address"
        }
      ],
      "name": "BountyCancelled",
      "type": "event"
    },
    {
      "anonymous": false,
      "inputs": [
        {
          "indexed": true,
          "internalType": "uint256",
          "name": "id",
          "type": "uint256"
        },
        {
          "indexed": true,
          "internalType": "address",
          "name": "winner",
          "type": "address"
        },
        {
          "indexed": false,
          "internalType": "string",
          "name": "cid",
          "type": "string"
        }
      ],
      "name": "BountyCompleted",
      "type": "event"
    },
    {
      "anonymous": false,
      "inputs": [
        {
          "indexed": true,
          "internalType": "uint256",
          "name": "id",
          "type": "uint256"
        },
        {
          "indexed": true,
          "internalType": "address",
          "name": "creator",
          "type": "address"
        },
        {
          "indexed": false,
          "internalType": "uint256",
          "name": "reward",
          "type": "uint256"
        },
        {
          "indexed": false,
          "internalType": "string",
          "name": "schemaUri",
          "type": "string"
        },
        {
          "indexed": false,
          "internalType": "uint256",
          "name": "deadline",
          "type": "uint256"
        }
      ],
      "name": "BountyCreated",
      "type": "event"
    },
    {
      "anonymous": false,
      "inputs": [
        {
          "indexed": true,
          "internalType": "address",
          "name": "previousOwner",
          "type": "address"
        },
        {
          "indexed": true,
          "internalType": "address",
          "name": "newOwner",
          "type": "address"
        }
      ],
      "name": "OwnershipTransferred",
      "type": "event"
    },
    {
      "anonymous": false,
      "inputs": [
        {
          "indexed": true,
          "internalType": "uint256",
          "name": "bountyId",
          "type": "uint256"
        },
        {
          "indexed": false,
          "internalType": "uint256",
          "name": "newCount",
          "type": "uint256"
        }
      ],
      "name": "SubmissionIncremented",
      "type": "event"
    },
    {
      "inputs": [],
      "name": "MIN_REWARD",
      "outputs": [
        {
          "internalType": "uint256",
          "name": "",
          "type": "uint256"
        }
      ],
      "stateMutability": "view",
      "type": "function"
    },
    {
      "inputs": [
        {
          "internalType": "uint256",
          "name": "",
          "type": "uint256"
        }
      ],
      "name": "bounties",
      "outputs": [
        {
          "internalType": "uint256",
          "name": "id",
          "type": "uint256"
        },
        {
          "internalType": "address",
          "name": "creator",
          "type": "address"
        },
        {
          "internalType": "string",
          "name": "title",
          "type": "string"
        },
        {
          "internalType": "string",
          "name": "description",
          "type": "string"
        },
        {
          "internalType": "string",
          "name": "schemaUri",
          "type": "string"
        },
        {
          "internalType": "uint256",
          "name": "reward",
          "type": "uint256"
        },
        {
          "internalType": "uint256",
          "name": "deadline",
          "type": "uint256"
        },
        {
          "internalType": "enum BountyRegistry.BountyStatus",
          "name": "status",
          "type": "uint8"
        },
        {
          "internalType": "uint256",
          "name": "maxSubmissions",
          "type": "uint256"
        },
        {
          "internalType": "uint256",
          "name": "submissionCount",
          "type": "uint256"
        },
        {
          "internalType": "uint256",
          "name": "createdAt",
          "type": "uint256"
        }
      ],
      "stateMutability": "view",
      "type": "function"
    },
    {
      "inputs": [
        {
          "internalType": "uint256",
          "name": "bountyId",
          "type": "uint256"
        }
      ],
      "name": "cancelBounty",
      "outputs": [],
      "stateMutability": "nonpayable",
      "type": "function"
    },
    {
      "inputs": [
        {
          "internalType": "uint256",
          "name": "bountyId",
          "type": "uint256"
        },
        {
          "internalType": "address",
          "name": "winner",
          "type": "address"
        },
        {
          "internalType": "string",
          "name": "cid",
          "type": "string"
        }
      ],
      "name": "completeBounty",
      "outputs": [],
      "stateMutability": "nonpayable",
      "type": "function"
    },
    {
      "inputs": [
        {
          "internalType": "string",
          "name": "title",
          "type": "string"
        },
        {
          "internalType": "string",
          "name": "description",
          "type": "string"
        },
        {
          "internalType": "string",
          "name": "schemaUri",
          "type": "string"
        },
        {
          "internalType": "uint256",
          "name": "deadline",
          "type": "uint256"
        },
        {
          "internalType": "uint256",
          "name": "maxSubmissions",
          "type": "uint256"
        }
      ],
      "name": "createBounty",
      "outputs": [
        {
          "internalType": "uint256",
          "name": "",
          "type": "uint256"
        }
      ],
      "stateMutability": "payable",
      "type": "function"
    },
    {
      "inputs": [
        {
          "internalType": "address",
          "name": "creator",
          "type": "address"
        }
      ],
      "name": "getBountiesByCreator",
      "outputs": [
        {
          "internalType": "uint256[]",
          "name": "",
          "type": "uint256[]"
        }
      ],
      "stateMutability": "view",
      "type": "function"
    },
    {
      "inputs": [
        {
          "internalType": "uint256",
          "name": "bountyId",
          "type": "uint256"
        }
      ],
      "name": "getBounty",
      "outputs": [
        {
          "components": [
            {
              "internalType": "uint256",
              "name": "id",
              "type": "uint256"
            },
            {
              "internalType": "address",
              "name": "creator",
              "type": "address"
            },
            {
              "internalType": "string",
              "name": "title",
              "type": "string"
            },
            {
              "internalType": "string",
              "name": "description",
              "type": "string"
            },
            {
              "internalType": "string",
              "name": "schemaUri",
              "type": "string"
            },
            {
              "internalType": "uint256",
              "name": "reward",
              "type": "uint256"
            },
            {
              "internalType": "uint256",
              "name": "deadline",
              "type": "uint256"
            },
            {
              "internalType": "enum BountyRegistry.BountyStatus",
              "name": "status",
              "type": "uint8"
            },
            {
              "internalType": "uint256",
              "name": "maxSubmissions",
              "type": "uint256"
            },
            {
              "internalType": "uint256",
              "name": "submissionCount",
              "type": "uint256"
            },
            {
              "internalType": "uint256",
              "name": "createdAt",
              "type": "uint256"
            }
          ],
          "internalType": "struct BountyRegistry.Bounty",
          "name": "",
          "type": "tuple"
        }
      ],
      "stateMutability": "view",
      "type": "function"
    },
    {
      "inputs": [],
      "name": "getTotalBounties",
      "outputs": [
        {
          "internalType": "uint256",
          "name": "",
          "type": "uint256"
        }
      ],
      "stateMutability": "view",
      "type": "function"
    },
    {
      "inputs": [
        {
          "internalType": "uint256",
          "name": "bountyId",
          "type": "uint256"
        }
      ],
      "name": "incrementSubmissions",
      "outputs": [],
      "stateMutability": "nonpayable",
      "type": "function"
    },
    {
      "inputs": [
        {
          "internalType": "uint256",
          "name": "bountyId",
          "type": "uint256"
        }
      ],
      "name": "isBountyActive",
      "outputs": [
        {
          "internalType": "bool",
          "name": "",
          "type": "bool"
        }
      ],
      "stateMutability": "view",
      "type": "function"
    },
    {
      "inputs": [],
      "name": "owner",
      "outputs": [
        {
          "internalType": "address",
          "name": "",
          "type": "address"
        }
      ],
      "stateMutability": "view",
      "type": "function"
    },
    {
      "inputs": [],
      "name": "renounceOwnership",
      "outputs": [],
      "stateMutability": "nonpayable",
      "type": "function"
    },
    {
      "inputs": [
        {
          "internalType": "address",
          "name": "newOwner",
          "type": "address"
        }
      ],
      "name": "transferOwnership",
      "outputs": [],
      "stateMutability": "nonpayable",
      "type": "function"
    }
  ],
  "bytecode": "0x6080604052348015600f57600080fd5b503380603557604051631e4fbdf760e01b81526000600482015260240160405180910390fd5b603c816045565b50600180556095565b600080546001600160a01b038381166001600160a01b0319831681178455604051919092169283917f8be0079c531659141344cd1fd0a4f28419497f9722a3daafe3b4186f6b6457e09190a35050565b61159e806100a46000396000f3fe6080604052600436106100c25760003560e01c80638da5cb5b1161007f578063dc2f874411610059578063dc2f8744146101f9578063e5e5dff114610230578063ee8c4bbf14610250578063f2fde38b1461027d57600080fd5b80638da5cb5b146101815780639ebb6024146101a95780639f9c737e146101d957600080fd5b806302ef3844146100c75780630c12d5a4146100fd5780631524e11b1461011c5780632dbe2c151461012f57806348ea0c0314610151578063715018a61461016c575b600080fd5b3480156100d357600080fd5b506100e76100e2366004610fa7565b61029d565b6040516100f49190610fc2565b60405180910390f35b34801561010957600080fd5b506002545b6040519081526020016100f4565b61010e61012a36600461104e565b61039f565b34801561013b57600080fd5b5061014f61014a366004611103565b610647565b005b34801561015d57600080fd5b5061010e662386f26fc1000081565b34801561017857600080fd5b5061014f610701565b34801561018d57600080fd5b506000546040516001600160a01b0390911681526020016100f4565b3480156101b557600080fd5b506101c96101c4366004611103565b610715565b60405190151581526020016100f4565b3480156101e557600080fd5b5061014f6101f436600461111c565b610769565b34801561020557600080fd5b50610219610214366004611103565b610838565b6040516100f49b9a999897969594939291906111f4565b34801561023c57600080fd5b5061014f61024b366004611103565b610a34565b34801561025c57600080fd5b5061027061026b366004611103565b610bd1565b6040516100f49190611286565b34801561028957600080fd5b5061014f610298366004610fa7565b610e35565b60606000805b6002548110156102e7576000818152600360205260409020600101546001600160a01b038086169116036102df57816102db8161135d565b9250505b6001016102a3565b5060008167ffffffffffffffff81111561030357610303611384565b60405190808252806020026020018201604052801561032c578160200160208202803683370190505b5090506000805b600254811015610395576000818152600360205260409020600101546001600160a01b0380881691160361038d57808383815181106103745761037461139a565b6020908102919091010152816103898161135d565b9250505b600101610333565b5090949350505050565b6000662386f26fc100003410156103c957604051636bbdb6db60e11b815260040160405180910390fd5b4283116103e957604051631da7447960e21b815260040160405180910390fd5b8160000361040a576040516307a92f1960e51b815260040160405180910390fd5b600280546000918261041b8361135d565b919050559050604051806101600160405280828152602001336001600160a01b031681526020018b8b8080601f016020809104026020016040519081016040528093929190818152602001838380828437600092019190915250505090825250604080516020601f8c018190048102820181019092528a815291810191908b908b9081908401838280828437600092019190915250505090825250604080516020601f8a01819004810282018101909252888152918101919089908990819084018382808284376000920191909152505050908252503460208201526040810186905260600160018152602080820186905260006040808401829052426060909401939093528481526003825282902083518155908301516001820180546001600160a01b0319166001600160a01b039092169190911790559082015160028201906105679082611439565b506060820151600382019061057c9082611439565b50608082015160048201906105919082611439565b5060a0820151600582015560c0820151600682015560e082015160078201805460ff191660018360038111156105c9576105c96111bc565b02179055506101008201518160080155610120820151816009015561014082015181600a0155905050336001600160a01b0316817f829381d257819f5798328cf5926092a2df2190a0d0fa7a5ed8fe7bf771683c4b348989896040516106329493929190611521565b60405180910390a39998505050505050505050565b600081815260036020526040902060018101546001600160a01b0316610680576040516324ce57e760e21b815260040160405180910390fd5b80600801548160090154106106a8576040516319e8037f60e21b815260040160405180910390fd5b6009810180549060006106ba8361135d565b9190505550817f469757b3373e7e24a0f9940a8f886ea691a9f9779f03ecac073d2b98c295983082600901546040516106f591815260200190565b60405180910390a25050565b610709610e70565b6107136000610e9d565b565b60008181526003602052604081206001600782015460ff16600381111561073e5761073e6111bc565b14801561074f575080600601544211155b8015610762575080600801548160090154105b9392505050565b600084815260036020526040902060018101546001600160a01b03166107a2576040516324ce57e760e21b815260040160405180910390fd5b6001600782015460ff1660038111156107bd576107bd6111bc565b146107db576040516307a92f1960e51b815260040160405180910390fd5b60078101805460ff191660021790556040516001600160a01b0385169086907fd70fd89b88eb3d3450e2fcf59aa4c5ee2ab1884be9310594c0184d657b30dab890610829908790879061154c565b60405180910390a35050505050565b60036020526000908152604090208054600182015460028301805492936001600160a01b039092169261086a906113b0565b80601f0160208091040260200160405190810160405280929190818152602001828054610896906113b0565b80156108e35780601f106108b8576101008083540402835291602001916108e3565b820191906000526020600020905b8154815290600101906020018083116108c657829003601f168201915b5050505050908060030180546108f8906113b0565b80601f0160208091040260200160405190810160405280929190818152602001828054610924906113b0565b80156109715780601f1061094657610100808354040283529160200191610971565b820191906000526020600020905b81548152906001019060200180831161095457829003601f168201915b505050505090806004018054610986906113b0565b80601f01602080910402602001604051908101604052809291908181526020018280546109b2906113b0565b80156109ff5780601f106109d4576101008083540402835291602001916109ff565b820191906000526020600020905b8154815290600101906020018083116109e257829003601f168201915b50505060058401546006850154600786015460088701546009880154600a909801549697939692955060ff909116935091908b565b610a3c610eed565b600081815260036020526040902060018101546001600160a01b0316610a75576040516324ce57e760e21b815260040160405180910390fd5b60018101546001600160a01b03163314610aa1576040516282b42960e81b815260040160405180910390fd5b6001600782015460ff166003811115610abc57610abc6111bc565b14610ada576040516307a92f1960e51b815260040160405180910390fd5b60078101805460ff19166003179055600181015460058201546040516000926001600160a01b031691908381818185875af1925050503d8060008114610b3c576040519150601f19603f3d011682016040523d82523d6000602084013e610b41565b606091505b5050905080610b875760405162461bcd60e51b815260206004820152600d60248201526c1499599d5b990819985a5b1959609a1b60448201526064015b60405180910390fd5b60018201546040516001600160a01b039091169084907fbe34663bc2803ca9be398afdbd7e0bd537378360b743b76b170e3421fbe3845090600090a35050610bce60018055565b50565b610bd9610f17565b6000828152600360209081526040918290208251610160810184528154815260018201546001600160a01b0316928101929092526002810180549293919291840191610c24906113b0565b80601f0160208091040260200160405190810160405280929190818152602001828054610c50906113b0565b8015610c9d5780601f10610c7257610100808354040283529160200191610c9d565b820191906000526020600020905b815481529060010190602001808311610c8057829003601f168201915b50505050508152602001600382018054610cb6906113b0565b80601f0160208091040260200160405190810160405280929190818152602001828054610ce2906113b0565b8015610d2f5780601f10610d0457610100808354040283529160200191610d2f565b820191906000526020600020905b815481529060010190602001808311610d1257829003601f168201915b50505050508152602001600482018054610d48906113b0565b80601f0160208091040260200160405190810160405280929190818152602001828054610d74906113b0565b8015610dc15780601f10610d9657610100808354040283529160200191610dc1565b820191906000526020600020905b815481529060010190602001808311610da457829003601f168201915b50505091835250506005820154602082015260068201546040820152600782015460609091019060ff166003811115610dfc57610dfc6111bc565b6003811115610e0d57610e0d6111bc565b81526008820154602082015260098201546040820152600a9091015460609091015292915050565b610e3d610e70565b6001600160a01b038116610e6757604051631e4fbdf760e01b815260006004820152602401610b7e565b610bce81610e9d565b6000546001600160a01b031633146107135760405163118cdaa760e01b8152336004820152602401610b7e565b600080546001600160a01b038381166001600160a01b0319831681178455604051919092169283917f8be0079c531659141344cd1fd0a4f28419497f9722a3daafe3b4186f6b6457e09190a35050565b600260015403610f1057604051633ee5aeb560e01b815260040160405180910390fd5b6002600155565b6040518061016001604052806000815260200160006001600160a01b03168152602001606081526020016060815260200160608152602001600081526020016000815260200160006003811115610f7057610f706111bc565b81526020016000815260200160008152602001600081525090565b80356001600160a01b0381168114610fa257600080fd5b919050565b600060208284031215610fb957600080fd5b61076282610f8b565b602080825282518282018190526000918401906040840190835b81811015610ffa578351835260209384019390920191600101610fdc565b509095945050505050565b60008083601f84011261101757600080fd5b50813567ffffffffffffffff81111561102f57600080fd5b60208301915083602082850101111561104757600080fd5b9250929050565b60008060008060008060008060a0898b03121561106a57600080fd5b883567ffffffffffffffff81111561108157600080fd5b61108d8b828c01611005565b909950975050602089013567ffffffffffffffff8111156110ad57600080fd5b6110b98b828c01611005565b909750955050604089013567ffffffffffffffff8111156110d957600080fd5b6110e58b828c01611005565b999c989b509699959896976060870135966080013595509350505050565b60006020828403121561111557600080fd5b5035919050565b6000806000806060858703121561113257600080fd5b8435935061114260208601610f8b565b9250604085013567ffffffffffffffff81111561115e57600080fd5b61116a87828801611005565b95989497509550505050565b6000815180845260005b8181101561119c57602081850181015186830182015201611180565b506000602082860101526020601f19601f83011685010191505092915050565b634e487b7160e01b600052602160045260246000fd5b600481106111f057634e487b7160e01b600052602160045260246000fd5b9052565b8b81526001600160a01b038b1660208201526101606040820181905260009061121f9083018c611176565b8281036060840152611231818c611176565b90508281036080840152611245818b611176565b9150508760a08301528660c083015261126160e08301876111d2565b8461010083015283610120830152826101408301529c9b505050505050505050505050565b6020815281516020820152600060208301516112ad60408401826001600160a01b03169052565b50604083015161016060608401526112c9610180840182611176565b90506060840151601f198483030160808501526112e68282611176565b9150506080840151601f198483030160a08501526113048282611176565b91505060a084015160c084015260c084015160e084015260e084015161132e6101008501826111d2565b506101008401516101208401526101208401516101408401526101408401516101608401528091505092915050565b60006001820161137d57634e487b7160e01b600052601160045260246000fd5b5060010190565b634e487b7160e01b600052604160045260246000fd5b634e487b7160e01b600052603260045260246000fd5b600181811c908216806113c457607f821691505b6020821081036113e457634e487b7160e01b600052602260045260246000fd5b50919050565b601f82111561143457806000526020600020601f840160051c810160208510156114115750805b601f840160051c820191505b81811015611431576000815560010161141d565b50505b505050565b815167ffffffffffffffff81111561145357611453611384565b6114678161146184546113b0565b846113ea565b6020601f82116001811461149b57600083156114835750848201515b600019600385901b1c1916600184901b178455611431565b600084815260208120601f198516915b828110156114cb57878501518255602094850194600190920191016114ab565b50848210156114e95786840151600019600387901b60f8161c191681555b50505050600190811b01905550565b81835281816020850137506000828201602090810191909152601f909101601f19169091010190565b84815260606020820152600061153b6060830185876114f8565b905082604083015295945050505050565b6020815260006115606020830184866114f8565b94935050505056fea2646970667358221220038dddbea10f9eaf5e804b881ce55428bfe7b134660cb649c841d38b1069866564736f6c634300081c0033",
  "linkReferences": {},
  "deployedLinkReferences": {}
}